{
  "address": "0x5FbDB2315678afecb367f032d93F642f64180aa3",
  "abi": [
    {
      "inputs": [],
      "stateMutability": "nonpayable",
      "type": "constructor"
    },
    {
      "inputs": [],
      "name": "CheckpointUnorderedInsertion",
      "type": "error"
    },
    {
      "inputs": [],
      "name": "ECDSAInvalidSignature",
      "type": "error"
    },
    {
      "inputs": [
        {
          "internalType": "uint256",
          "name": "length",
          "type": "uint256"
        }
      ],
      "name": "ECDSAInvalidSignatureLength",
      "type": "error"
    },
    {
      "inputs": [
        {
          "internalType": "bytes32",
          "name": "s",
          "type": "bytes32"
        }
      ],
      "name": "ECDSAInvalidSignatureS",
      "type": "error"
    },
    {
      "inputs": [
        {
          "internalType": "uint256",
          "name": "increasedSupply",
          "type": "uint256"
        },
        {
          "internalType": "uint256",
          "name": "cap",
          "type": "uint256"
        }
      ],
      "name": "ERC20ExceededSafeSupply",
      "type": "error"
    },
    {
      "inputs": [
        {
          "internalType": "address",
          "name": "spender",
          "type": "address"
        },
        {
          "internalType": "uint256",
          "name": "allowance",
          "type": "uint256"
        },
        {
          "internalType": "uint256",
          "name": "needed",
          "type": "uint256"
        }
      ],
      "name": "ERC20InsufficientAllowance",
      "type": "error"
    },
    {
      "inputs": [
        {
          "internalType": "address",
          "name": "sender",
          "type": "address"
        },
        {
          "internalType": "uint256",
          "name": "balance",
          "type": "uint256"
        },
        {
          "internalType": "uint256",
          "name": "needed",
          "type": "uint256"
        }
      ],
      "name": "ERC20InsufficientBalance",
      "type": "error"
    },
    {
      "inputs": [
        {
          "internalType": "address",
          "name": "approver",
          "type": "address"
        }
      ],
      "name": "ERC20InvalidApprover",
      "type": "error"
    },
    {
      "inputs": [
        {
          "internalType": "address",
          "name": "receiver",
          "type": "address"
        }
      ],
      "name": "ERC20InvalidReceiver",
      "type": "error"
    },
    {
      "inputs": [
        {
          "internalType": "address",
          "name": "sender",
          "type": "address"
        }
      ],
      "name": "ERC20InvalidSender",
      "type": "error"
    },
    {
      "inputs": [
        {
          "internalType": "address",
          "name": "spender",
          "type": "address"
        }
      ],
      "name": "ERC20InvalidSpender",
      "type": "error"
    },
    {
      "inputs": [
        {
          "internalType": "uint256",
          "name": "deadline",
          "type": "uint256"
        }
      ],
      "name": "ERC2612ExpiredSignature",
      "type": "error"
    },
    {
      "inputs": [
        {
          "internalType": "address",
          "name": "signer",
          "type": "address"
        },
        {
          "internalType": "address",
          "name": "owner",
          "type": "address"
        }
      ],
      "name": "ERC2612InvalidSigner",
      "type": "error"
    },
    {
      "inputs": [
        {
          "internalType": "uint256",
          "name": "timepoint",
          "type": "uint256"
        },
        {
          "internalType": "uint48",
          "name": "clock",
          "type": "uint48"
        }
      ],
      "name": "ERC5805FutureLookup",
      "type": "error"
    },
    {
      "inputs": [],
      "name": "ERC6372InconsistentClock",
      "type": "error"
    },
    {
      "inputs": [
        {
          "internalType": "address",
          "name": "account",
          "type": "address"
        },
        {
          "internalType": "uint256",
          "name": "currentNonce",
          "type": "uint256"
        }
      ],
      "name": "InvalidAccountNonce",
      "type": "error"
    },
    {
      "inputs": [],
      "name": "InvalidShortString",
      "type": "error"
    },
    {
      "inputs": [
        {
          "internalType": "address",
          "name": "owner",
          "type": "address"
        }
      ],
      "name": "OwnableInvalidOwner",
      "type": "error"
    },
    {
      "inputs": [
        {
          "internalType": "address",
          "name": "account",
          "type": "address"
        }
      ],
      "name": "OwnableUnauthorizedAccount",
      "type": "error"
    },
    {
      "inputs": [
        {
          "internalType": "uint8",
          "name": "bits",
          "type": "uint8"
        },
        {
          "internalType": "uint256",
          "name": "value",
          "type": "uint256"
        }
      ],
      "name": "SafeCastOverflowedUintDowncast",
      "type": "error"
    },
    {
      "inputs": [
        {
          "internalType": "string",
          "name": "str",
          "type": "string"
        }
      ],
      "name": "StringTooLong",
      "type": "error"
    },
    {
      "inputs": [
        {
          "internalType": "uint256",
          "name": "expiry",
          "type": "uint256"
        }
      ],
      "name": "VotesExpiredSignature",
      "type": "error"
    },
    {
      "anonymous": false,
      "inputs": [
        {
          "indexed": true,
          "internalType": "address",
          "name": "owner",
          "type": "address"
        },
        {
          "indexed": true,
          "internalType": "address",
          "name": "spender",
          "type": "address"
        },
        {
          "indexed": false,
          "internalType": "uint256",
          "name": "value",
          "type": "uint256"
        }
      ],
      "name": "Approval",
      "type": "event"
    },
    {
      "anonymous": false,
      "inputs": [
        {
          "indexed": true,
          "internalType": "address",
          "name": "delegator",
          "type": "address"
        },
        {
          "indexed": true,
          "internalType": "address",
          "name": "fromDelegate",
          "type": "address"
        },
        {
          "indexed": true,
          "internalType": "address",
          "name": "toDelegate",
          "type": "address"
        }
      ],
      "name": "DelegateChanged",
      "type": "event"
    },
    {
      "anonymous": false,
      "inputs": [
        {
          "indexed": true,
          "internalType": "address",
          "name": "delegate",
          "type": "address"
        },
        {
          "indexed": false,
          "internalType": "uint256",
          "name": "previousVotes",
          "type": "uint256"
        },
        {
          "indexed": false,
          "internalType": "uint256",
          "name": "newVotes",
          "type": "uint256"
        }
      ],
      "name": "DelegateVotesChanged",
      "type": "event"
    },
    {
      "anonymous": false,
      "inputs": [],
      "name": "EIP712DomainChanged",
      "type": "event"
    },
    {
      "anonymous": false,
      "inputs": [
        {
          "indexed": true,
          "internalType": "address",
          "name": "previousOwner",
          "type": "address"
        },
        {
          "indexed": true,
          "internalType": "address",
          "name": "newOwner",
          "type": "address"
        }
      ],
      "name": "OwnershipTransferred",
      "type": "event"
    },
    {
      "anonymous": false,
      "inputs": [
        {
          "indexed": true,
          "internalType": "address",
          "name": "from",
          "type": "address"
        },
        {
          "indexed": true,
          "internalType": "address",
          "name": "to",
          "type": "address"
        },
        {
          "indexed": false,
          "internalType": "uint256",
          "name": "value",
          "type": "uint256"
        }
      ],
      "name": "Transfer",
      "type": "event"
    },
    {
      "inputs": [],
      "name": "CLOCK_MODE",
      "outputs": [
        {
          "internalType": "string",
          "name": "",
          "type": "string"
        }
      ],
      "stateMutability": "view",
      "type": "function"
    },
    {
      "inputs": [],
      "name": "DOMAIN_SEPARATOR",
      "outputs": [
        {
          "internalType": "bytes32",
          "name": "",
          "type": "bytes32"
        }
      ],
      "stateMutability": "view",
      "type": "function"
    },
    {
      "inputs": [
        {
          "internalType": "address",
          "name": "owner",
          "type": "address"
        },
        {
          "internalType": "address",
          "name": "spender",
          "type": "address"
        }
      ],
      "name": "allowance",
      "outputs": [
        {
          "internalType": "uint256",
          "name": "",
          "type": "uint256"
        }
      ],
      "stateMutability": "view",
      "type": "function"
    },
    {
      "inputs": [
        {
          "internalType": "address",
          "name": "spender",
          "type": "address"
        },
        {
          "internalType": "uint256",
          "name": "value",
          "type": "uint256"
        }
      ],
      "name": "approve",
      "outputs": [
        {
          "internalType": "bool",
          "name": "",
          "type": "bool"
        }
      ],
      "stateMutability": "nonpayable",
      "type": "function"
    },
    {
      "inputs": [
        {
          "internalType": "address",
          "name": "account",
          "type": "address"
        }
      ],
      "name": "balanceOf",
      "outputs": [
        {
          "internalType": "uint256",
          "name": "",
          "type": "uint256"
        }
      ],
      "stateMutability": "view",
      "type": "function"
    },
    {
      "inputs": [
        {
          "internalType": "address",
          "name": "account",
          "type": "address"
        },
        {
          "internalType": "uint32",
          "name": "pos",
          "type": "uint32"
        }
      ],
      "name": "checkpoints",
      "outputs": [
        {
          "components": [
            {
              "internalType": "uint48",
              "name": "_key",
              "type": "uint48"
            },
            {
              "internalType": "uint208",
              "name": "_value",
              "type": "uint208"
            }
          ],
          "internalType": "struct Checkpoints.Checkpoint208",
          "name": "",
          "type": "tuple"
        }
      ],
      "stateMutability": "view",
      "type": "function"
    },
    {
      "inputs": [],
      "name": "clock",
      "outputs": [
        {
          "internalType": "uint48",
          "name": "",
          "type": "uint48"
        }
      ],
      "stateMutability": "view",
      "type": "function"
    },
    {
      "inputs": [],
      "name": "decimals",
      "outputs": [
        {
          "internalType": "uint8",
          "name": "",
          "type": "uint8"
        }
      ],
      "stateMutability": "view",
      "type": "function"
    },
    {
      "inputs": [
        {
          "internalType": "address",
          "name": "delegatee",
          "type": "address"
        }
      ],
      "name": "delegate",
      "outputs": [],
      "stateMutability": "nonpayable",
      "type": "function"
    },
    {
      "inputs": [
        {
          "internalType": "address",
          "name": "delegatee",
          "type": "address"
        },
        {
          "internalType": "uint256",
          "name": "nonce",
          "type": "uint256"
        },
        {
          "internalType": "uint256",
          "name": "expiry",
          "type": "uint256"
        },
        {
          "internalType": "uint8",
          "name": "v",
          "type": "uint8"
        },
        {
          "internalType": "bytes32",
          "name": "r",
          "type": "bytes32"
        },
        {
          "internalType": "bytes32",
          "name": "s",
          "type": "bytes32"
        }
      ],
      "name": "delegateBySig",
      "outputs": [],
      "stateMutability": "nonpayable",
      "type": "function"
    },
    {
      "inputs": [
        {
          "internalType": "address",
          "name": "account",
          "type": "address"
        }
      ],
      "name": "delegates",
      "outputs": [
        {
          "internalType": "address",
          "name": "",
          "type": "address"
        }
      ],
      "stateMutability": "view",
      "type": "function"
    },
    {
      "inputs": [],
      "name": "eip712Domain",
      "outputs": [
        {
          "internalType": "bytes1",
          "name": "fields",
          "type": "bytes1"
        },
        {
          "internalType": "string",
          "name": "name",
          "type": "string"
        },
        {
          "internalType": "string",
          "name": "version",
          "type": "string"
        },
        {
          "internalType": "uint256",
          "name": "chainId",
          "type": "uint256"
        },
        {
          "internalType": "address",
          "name": "verifyingContract",
          "type": "address"
        },
        {
          "internalType": "bytes32",
          "name": "salt",
          "type": "bytes32"
        },
        {
          "internalType": "uint256[]",
          "name": "extensions",
          "type": "uint256[]"
        }
      ],
      "stateMutability": "view",
      "type": "function"
    },
    {
      "inputs": [
        {
          "internalType": "uint256",
          "name": "timepoint",
          "type": "uint256"
        }
      ],
      "name": "getPastTotalSupply",
      "outputs": [
        {
          "internalType": "uint256",
          "name": "",
          "type": "uint256"
        }
      ],
      "stateMutability": "view",
      "type": "function"
    },
    {
      "inputs": [
        {
          "internalType": "address",
          "name": "account",
          "type": "address"
        },
        {
          "internalType": "uint256",
          "name": "timepoint",
          "type": "uint256"
        }
      ],
      "name": "getPastVotes",
      "outputs": [
        {
          "internalType": "uint256",
          "name": "",
          "type": "uint256"
        }
      ],
      "stateMutability": "view",
      "type": "function"
    },
    {
      "inputs": [
        {
          "internalType": "address",
          "name": "account",
          "type": "address"
        }
      ],
      "name": "getVotes",
      "outputs": [
        {
          "internalType": "uint256",
          "name": "",
          "type": "uint256"
        }
      ],
      "stateMutability": "view",
      "type": "function"
    },
    {
      "inputs": [],
      "name": "name",
      "outputs": [
        {
          "internalType": "string",
          "name": "",
          "type": "string"
        }
      ],
      "stateMutability": "view",
      "type": "function"
    },
    {
      "inputs": [
        {
          "internalType": "address",
          "name": "owner",
          "type": "address"
        }
      ],
      "name": "nonces",
      "outputs": [
        {
          "internalType": "uint256",
          "name": "",
          "type": "uint256"
        }
      ],
      "stateMutability": "view",
      "type": "function"
    },
    {
      "inputs": [
        {
          "internalType": "address",
          "name": "account",
          "type": "address"
        }
      ],
      "name": "numCheckpoints",
      "outputs": [
        {
          "internalType": "uint32",
          "name": "",
          "type": "uint32"
        }
      ],
      "stateMutability": "view",
      "type": "function"
    },
    {
      "inputs": [],
      "name": "owner",
      "outputs": [
        {
          "internalType": "address",
          "name": "",
          "type": "address"
        }
      ],
      "stateMutability": "view",
      "type": "function"
    },
    {
      "inputs": [
        {
          "internalType": "address",
          "name": "owner",
          "type": "address"
        },
        {
          "internalType": "address",
          "name": "spender",
          "type": "address"
        },
        {
          "internalType": "uint256",
          "name": "value",
          "type": "uint256"
        },
        {
          "internalType": "uint256",
          "name": "deadline",
          "type": "uint256"
        },
        {
          "internalType": "uint8",
          "name": "v",
          "type": "uint8"
        },
        {
          "internalType": "bytes32",
          "name": "r",
          "type": "bytes32"
        },
        {
          "internalType": "bytes32",
          "name": "s",
          "type": "bytes32"
        }
      ],
      "name": "permit",
      "outputs": [],
      "stateMutability": "nonpayable",
      "type": "function"
    },
    {
      "inputs": [],
      "name": "renounceOwnership",
      "outputs": [],
      "stateMutability": "nonpayable",
      "type": "function"
    },
    {
      "inputs": [],
      "name": "symbol",
      "outputs": [
        {
          "internalType": "string",
          "name": "",
          "type": "string"
        }
      ],
      "stateMutability": "view",
      "type": "function"
    },
    {
      "inputs": [],
      "name": "totalSupply",
      "outputs": [
        {
          "internalType": "uint256",
          "name": "",
          "type": "uint256"
        }
      ],
      "stateMutability": "view",
      "type": "function"
    },
    {
      "inputs": [
        {
          "internalType": "address",
          "name": "to",
          "type": "address"
        },
        {
          "internalType": "uint256",
          "name": "value",
          "type": "uint256"
        }
      ],
      "name": "transfer",
      "outputs": [
        {
          "internalType": "bool",
          "name": "",
          "type": "bool"
        }
      ],
      "stateMutability": "nonpayable",
      "type": "function"
    },
    {
      "inputs": [
        {
          "internalType": "address",
          "name": "from",
          "type": "address"
        },
        {
          "internalType": "address",
          "name": "to",
          "type": "address"
        },
        {
          "internalType": "uint256",
          "name": "value",
          "type": "uint256"
        }
      ],
      "name": "transferFrom",
      "outputs": [
        {
          "internalType": "bool",
          "name": "",
          "type": "bool"
        }
      ],
      "stateMutability": "nonpayable",
      "type": "function"
    },
    {
      "inputs": [
        {
          "internalType": "address",
          "name": "newOwner",
          "type": "address"
        }
      ],
      "name": "transferOwnership",
      "outputs": [],
      "stateMutability": "nonpayable",
      "type": "function"
    }
  ],
  "transactionHash": "0x0c7df75bf532908f6f093a71161f80ab62f70c8fc8408edd2199509b5637dfd0",
  "args": [],
  "numDeployments": 1,
  "solcInputHash": "ddb0f193cccdf1db462d0d4e97def0f9",
  "bytecode": "0x610160604052655af3107a4000600c553480156200001c57600080fd5b50604051806040016040528060088152602001672230b7aa37b5b2b760c11b81525080604051806040016040528060018152602001603160f81b81525033604051806040016040528060088152602001672230b7aa37b5b2b760c11b8152506040518060400160405280600381526020016244544b60e81b8152508160039081620000a8919062000a03565b506004620000b7828262000a03565b5050506001600160a01b038116620000ea57604051631e4fbdf760e01b8152600060048201526024015b60405180910390fd5b620000f581620001c2565b506200010382600662000214565b610120526200011481600762000214565b61014052815160208084019190912060e052815190820120610100524660a052620001a260e05161010051604080517f8b73c3c69bb8fe3d512ecc4cf759cc79239f7b179b0ffacaa9a75d522b39400f60208201529081019290925260608201524660808201523060a082015260009060c00160405160208183030381529060405280519060200120905090565b60805250503060c05250600c54620001bc9033906200024d565b62000bd3565b600580546001600160a01b038381166001600160a01b0319831681179093556040519116919082907f8be0079c531659141344cd1fd0a4f28419497f9722a3daafe3b4186f6b6457e090600090a35050565b600060208351101562000234576200022c836200028b565b905062000247565b8162000241848262000a03565b5060ff90505b92915050565b6001600160a01b038216620002795760405163ec442f0560e01b815260006004820152602401620000e1565b6200028760008383620002ce565b5050565b600080829050601f81511115620002b9578260405163305a27a960e01b8152600401620000e1919062000acf565b8051620002c68262000b1f565b179392505050565b620002db838383620002e0565b505050565b620002ed8383836200034f565b6001600160a01b038316620003425760006200030860025490565b90506001600160d01b03808211156200033f57604051630e58ae9360e11b81526004810183905260248101829052604401620000e1565b50505b620002db83838362000482565b6001600160a01b0383166200037e57806002600082825462000372919062000b5a565b90915550620003f29050565b6001600160a01b03831660009081526020819052604090205481811015620003d35760405163391434e360e21b81526001600160a01b03851660048201526024810182905260448101839052606401620000e1565b6001600160a01b03841660009081526020819052604090209082900390555b6001600160a01b03821662000410576002805482900390556200042f565b6001600160a01b03821660009081526020819052604090208054820190555b816001600160a01b0316836001600160a01b03167fddf252ad1be2c89b69c2b068fc378daa952ba7f163c4a11628f55a4df523b3ef836040516200047591815260200190565b60405180910390a3505050565b6001600160a01b038316620004b757620004b4600b620009a46200051a60201b17620004ae846200052f565b62000569565b50505b6001600160a01b038216620004e657620004e3600b620009b0620005a660201b17620004ae846200052f565b50505b6001600160a01b03838116600090815260096020526040808220548584168352912054620002db92918216911683620005b4565b600062000528828462000b70565b9392505050565b60006001600160d01b0382111562000565576040516306dfcc6560e41b815260d0600482015260248101839052604401620000e1565b5090565b600080620005996200057a6200071b565b6200059062000589886200072c565b868860201c565b8791906200077b565b915091505b935093915050565b600062000528828462000b9a565b816001600160a01b0316836001600160a01b031614158015620005d75750600081115b15620002db576001600160a01b038316156200067a576001600160a01b0383166000908152600a6020908152604082208291620006259190620005a6901b620009b017620004ae866200052f565b6001600160d01b031691506001600160d01b03169150846001600160a01b031660008051602062002b9683398151915283836040516200066f929190918252602082015260400190565b60405180910390a250505b6001600160a01b03821615620002db576001600160a01b0382166000908152600a6020908152604082208291620006c291906200051a901b620009a417620004ae866200052f565b6001600160d01b031691506001600160d01b03169150836001600160a01b031660008051602062002b9683398151915283836040516200070c929190918252602082015260400190565b60405180910390a25050505050565b6000620007276200078b565b905090565b80546000908015620007725762000758836200074a60018462000bbd565b600091825260209091200190565b54660100000000000090046001600160d01b031662000528565b60009392505050565b6000806200059985858562000798565b600062000727436200092a565b825460009081908015620008cb576000620007ba876200074a60018562000bbd565b60408051808201909152905465ffffffffffff80821680845266010000000000009092046001600160d01b0316602084015291925090871610156200081257604051632520601d60e01b815260040160405180910390fd5b805165ffffffffffff80881691160362000866578462000839886200074a60018662000bbd565b80546001600160d01b039290921666010000000000000265ffffffffffff909216919091179055620008ba565b6040805180820190915265ffffffffffff80881682526001600160d01b0380881660208085019182528b54600181018d5560008d815291909120945191519092166601000000000000029216919091179101555b6020015192508391506200059e9050565b50506040805180820190915265ffffffffffff80851682526001600160d01b0380851660208085019182528854600181018a5560008a81529182209551925190931666010000000000000291909316179201919091559050816200059e565b600065ffffffffffff82111562000565576040516306dfcc6560e41b81526030600482015260248101839052604401620000e1565b634e487b7160e01b600052604160045260246000fd5b600181811c908216806200098a57607f821691505b602082108103620009ab57634e487b7160e01b600052602260045260246000fd5b50919050565b601f821115620002db57600081815260208120601f850160051c81016020861015620009da5750805b601f850160051c820191505b81811015620009fb57828155600101620009e6565b505050505050565b81516001600160401b0381111562000a1f5762000a1f6200095f565b62000a378162000a30845462000975565b84620009b1565b602080601f83116001811462000a6f576000841562000a565750858301515b600019600386901b1c1916600185901b178555620009fb565b600085815260208120601f198616915b8281101562000aa05788860151825594840194600190910190840162000a7f565b508582101562000abf5787850151600019600388901b60f8161c191681555b5050505050600190811b01905550565b600060208083528351808285015260005b8181101562000afe5785810183015185820160400152820162000ae0565b506000604082860101526040601f19601f8301168501019250505092915050565b80516020808301519190811015620009ab5760001960209190910360031b1b16919050565b634e487b7160e01b600052601160045260246000fd5b8082018082111562000247576200024762000b44565b6001600160d01b0381811683821601908082111562000b935762000b9362000b44565b5092915050565b6001600160d01b0382811682821603908082111562000b935762000b9362000b44565b8181038181111562000247576200024762000b44565b60805160a05160c05160e051610100516101205161014051611f6862000c2e6000396000610e3301526000610e0601526000610b8501526000610b5d01526000610ab801526000610ae201526000610b0c0152611f686000f3fe608060405234801561001057600080fd5b506004361061018e5760003560e01c80637ecebe00116100de5780639ab24eb011610097578063d505accf11610071578063d505accf1461038f578063dd62ed3e146103a2578063f1127ed8146103db578063f2fde38b1461041a57600080fd5b80639ab24eb014610356578063a9059cbb14610369578063c3cda5201461037c57600080fd5b80637ecebe00146102dd57806384b0196e146102f05780638da5cb5b1461030b5780638e539e8c1461031c57806391ddadf41461032f57806395d89b411461034e57600080fd5b80633a46b1a81161014b5780635c19a95c116101255780635c19a95c1461026f5780636fcfff451461028457806370a08231146102ac578063715018a6146102d557600080fd5b80633a46b1a8146102105780634bf5d7e914610223578063587cde1e1461022b57600080fd5b806306fdde0314610193578063095ea7b3146101b157806318160ddd146101d457806323b872dd146101e6578063313ce567146101f95780633644e51514610208575b600080fd5b61019b61042d565b6040516101a89190611b6c565b60405180910390f35b6101c46101bf366004611b9b565b6104bf565b60405190151581526020016101a8565b6002545b6040519081526020016101a8565b6101c46101f4366004611bc5565b6104d9565b604051601281526020016101a8565b6101d86104fd565b6101d861021e366004611b9b565b61050c565b61019b610592565b610257610239366004611c01565b6001600160a01b039081166000908152600960205260409020541690565b6040516001600160a01b0390911681526020016101a8565b61028261027d366004611c01565b61060a565b005b610297610292366004611c01565b610619565b60405163ffffffff90911681526020016101a8565b6101d86102ba366004611c01565b6001600160a01b031660009081526020819052604090205490565b610282610624565b6101d86102eb366004611c01565b610638565b6102f8610643565b6040516101a89796959493929190611c1c565b6005546001600160a01b0316610257565b6101d861032a366004611cb2565b610689565b6103376106f3565b60405165ffffffffffff90911681526020016101a8565b61019b6106fd565b6101d8610364366004611c01565b61070c565b6101c4610377366004611b9b565b61073c565b61028261038a366004611cdc565b61074a565b61028261039d366004611d34565b610807565b6101d86103b0366004611d9e565b6001600160a01b03918216600090815260016020908152604080832093909416825291909152205490565b6103ee6103e9366004611dd1565b610941565b60408051825165ffffffffffff1681526020928301516001600160d01b031692810192909252016101a8565b610282610428366004611c01565b610966565b60606003805461043c90611e11565b80601f016020809104026020016040519081016040528092919081815260200182805461046890611e11565b80156104b55780601f1061048a576101008083540402835291602001916104b5565b820191906000526020600020905b81548152906001019060200180831161049857829003601f168201915b5050505050905090565b6000336104cd8185856109bc565b60019150505b92915050565b6000336104e78582856109ce565b6104f2858585610a4c565b506001949350505050565b6000610507610aab565b905090565b6000806105176106f3565b90508065ffffffffffff16831061055757604051637669fc0f60e11b81526004810184905265ffffffffffff821660248201526044015b60405180910390fd5b61058161056384610bd6565b6001600160a01b0386166000908152600a6020526040902090610c0d565b6001600160d01b0316949350505050565b606061059c610cc3565b65ffffffffffff166105ac6106f3565b65ffffffffffff16146105d2576040516301bfc1c560e61b815260040160405180910390fd5b5060408051808201909152601d81527f6d6f64653d626c6f636b6e756d6265722666726f6d3d64656661756c74000000602082015290565b336106158183610cce565b5050565b60006104d382610d40565b61062c610d62565b6106366000610d8f565b565b60006104d382610de1565b600060608060008060006060610657610dff565b61065f610e2c565b60408051600080825260208201909252600f60f81b9b939a50919850469750309650945092509050565b6000806106946106f3565b90508065ffffffffffff1683106106cf57604051637669fc0f60e11b81526004810184905265ffffffffffff8216602482015260440161054e565b6106e36106db84610bd6565b600b90610c0d565b6001600160d01b03169392505050565b6000610507610cc3565b60606004805461043c90611e11565b6001600160a01b0381166000908152600a6020526040812061072d90610e59565b6001600160d01b031692915050565b6000336104cd818585610a4c565b8342111561076e57604051632341d78760e11b81526004810185905260240161054e565b604080517fe48329057bfd03d55e49b547132e39cffd9c1820ad7b9d4c5307691425d15adf60208201526001600160a01b0388169181019190915260608101869052608081018590526000906107e8906107e09060a00160405160208183030381529060405280519060200120610e92565b858585610ebf565b90506107f48187610eed565b6107fe8188610cce565b50505050505050565b8342111561082b5760405163313c898160e11b81526004810185905260240161054e565b60007f6e71edae12b1b97f4d1f60370fef10105fa2faae0126114a169c64845d6126c98888886108788c6001600160a01b0316600090815260086020526040902080546001810190915590565b6040805160208101969096526001600160a01b0394851690860152929091166060840152608083015260a082015260c0810186905260e00160405160208183030381529060405280519060200120905060006108d382610e92565b905060006108e382878787610ebf565b9050896001600160a01b0316816001600160a01b03161461092a576040516325c0072360e11b81526001600160a01b0380831660048301528b16602482015260440161054e565b6109358a8a8a6109bc565b50505050505050505050565b604080518082019091526000808252602082015261095f8383610f40565b9392505050565b61096e610d62565b6001600160a01b03811661099857604051631e4fbdf760e01b81526000600482015260240161054e565b6109a181610d8f565b50565b600061095f8284611e61565b600061095f8284611e88565b6109c98383836001610f76565b505050565b6001600160a01b038381166000908152600160209081526040808320938616835292905220546000198114610a465781811015610a3757604051637dc7a0d960e11b81526001600160a01b0384166004820152602481018290526044810183905260640161054e565b610a4684848484036000610f76565b50505050565b6001600160a01b038316610a7657604051634b637e8f60e11b81526000600482015260240161054e565b6001600160a01b038216610aa05760405163ec442f0560e01b81526000600482015260240161054e565b6109c983838361104b565b6000306001600160a01b037f000000000000000000000000000000000000000000000000000000000000000016148015610b0457507f000000000000000000000000000000000000000000000000000000000000000046145b15610b2e57507f000000000000000000000000000000000000000000000000000000000000000090565b610507604080517f8b73c3c69bb8fe3d512ecc4cf759cc79239f7b179b0ffacaa9a75d522b39400f60208201527f0000000000000000000000000000000000000000000000000000000000000000918101919091527f000000000000000000000000000000000000000000000000000000000000000060608201524660808201523060a082015260009060c00160405160208183030381529060405280519060200120905090565b600065ffffffffffff821115610c09576040516306dfcc6560e41b8152603060048201526024810183905260440161054e565b5090565b815460009081816005811115610c6c576000610c2884611056565b610c329085611ea8565b60008881526020902090915081015465ffffffffffff9081169087161015610c5c57809150610c6a565b610c67816001611ebb565b92505b505b6000610c7a8787858561113e565b90508015610cb557610c9f87610c91600184611ea8565b600091825260209091200190565b54600160301b90046001600160d01b0316610cb8565b60005b979650505050505050565b600061050743610bd6565b6001600160a01b0382811660008181526009602052604080822080548686166001600160a01b0319821681179092559151919094169392849290917f3134e8a2e6d97e929a7e54011ea5485d7d196dd5f0ba4d4ef95803e8e3fc257f9190a46109c98183610d3b866111a0565b6111be565b6001600160a01b0381166000908152600a60205260408120546104d39061132a565b6005546001600160a01b031633146106365760405163118cdaa760e01b815233600482015260240161054e565b600580546001600160a01b038381166001600160a01b0319831681179093556040519116919082907f8be0079c531659141344cd1fd0a4f28419497f9722a3daafe3b4186f6b6457e090600090a35050565b6001600160a01b0381166000908152600860205260408120546104d3565b60606105077f0000000000000000000000000000000000000000000000000000000000000000600661135b565b60606105077f0000000000000000000000000000000000000000000000000000000000000000600761135b565b80546000908015610e8957610e7383610c91600184611ea8565b54600160301b90046001600160d01b031661095f565b60009392505050565b60006104d3610e9f610aab565b8360405161190160f01b8152600281019290925260228201526042902090565b600080600080610ed188888888611406565b925092509250610ee182826114d5565b50909695505050505050565b6001600160a01b03821660009081526008602052604090208054600181019091558181146109c9576040516301d4b62360e61b81526001600160a01b03841660048201526024810182905260440161054e565b60408051808201909152600080825260208201526001600160a01b0383166000908152600a6020526040902061095f908361158e565b6001600160a01b038416610fa05760405163e602df0560e01b81526000600482015260240161054e565b6001600160a01b038316610fca57604051634a1406b160e11b81526000600482015260240161054e565b6001600160a01b0380851660009081526001602090815260408083209387168352929052208290558015610a4657826001600160a01b0316846001600160a01b03167f8c5be1e5ebec7d5bd14f71427d1e84f3dd0314c0f7b2291e5b200ac8c7c3b9258460405161103d91815260200190565b60405180910390a350505050565b6109c98383836115fe565b60008160000361106857506000919050565b6000600161107584611665565b901c6001901b9050600181848161108e5761108e611ece565b048201901c905060018184816110a6576110a6611ece565b048201901c905060018184816110be576110be611ece565b048201901c905060018184816110d6576110d6611ece565b048201901c905060018184816110ee576110ee611ece565b048201901c9050600181848161110657611106611ece565b048201901c9050600181848161111e5761111e611ece565b048201901c905061095f8182858161113857611138611ece565b046116f9565b60005b81831015611198576000611155848461170f565b60008781526020902090915065ffffffffffff86169082015465ffffffffffff16111561118457809250611192565b61118f816001611ebb565b93505b50611141565b509392505050565b6001600160a01b0381166000908152602081905260408120546104d3565b816001600160a01b0316836001600160a01b0316141580156111e05750600081115b156109c9576001600160a01b03831615611288576001600160a01b0383166000908152600a602052604081208190611223906109b061121e8661172a565b61175e565b6001600160d01b031691506001600160d01b03169150846001600160a01b03167fdec2bacdd2f05b59de34da9b523dff8be42e5e38e818c82fdb0bae774387a724838360405161127d929190918252602082015260400190565b60405180910390a250505b6001600160a01b038216156109c9576001600160a01b0382166000908152600a6020526040812081906112c1906109a461121e8661172a565b6001600160d01b031691506001600160d01b03169150836001600160a01b03167fdec2bacdd2f05b59de34da9b523dff8be42e5e38e818c82fdb0bae774387a724838360405161131b929190918252602082015260400190565b60405180910390a25050505050565b600063ffffffff821115610c09576040516306dfcc6560e41b8152602060048201526024810183905260440161054e565b606060ff83146113755761136e83611797565b90506104d3565b81805461138190611e11565b80601f01602080910402602001604051908101604052809291908181526020018280546113ad90611e11565b80156113fa5780601f106113cf576101008083540402835291602001916113fa565b820191906000526020600020905b8154815290600101906020018083116113dd57829003601f168201915b505050505090506104d3565b600080807f7fffffffffffffffffffffffffffffff5d576e7357a4501ddfe92f46681b20a084111561144157506000915060039050826114cb565b604080516000808252602082018084528a905260ff891692820192909252606081018790526080810186905260019060a0016020604051602081039080840390855afa158015611495573d6000803e3d6000fd5b5050604051601f1901519150506001600160a01b0381166114c1575060009250600191508290506114cb565b9250600091508190505b9450945094915050565b60008260038111156114e9576114e9611ee4565b036114f2575050565b600182600381111561150657611506611ee4565b036115245760405163f645eedf60e01b815260040160405180910390fd5b600282600381111561153857611538611ee4565b036115595760405163fce698f760e01b81526004810182905260240161054e565b600382600381111561156d5761156d611ee4565b03610615576040516335e2f38360e21b81526004810182905260240161054e565b6040805180820190915260008082526020820152826000018263ffffffff16815481106115bd576115bd611efa565b60009182526020918290206040805180820190915291015465ffffffffffff81168252600160301b90046001600160d01b0316918101919091529392505050565b6116098383836117d6565b6001600160a01b03831661165a57600061162260025490565b90506001600160d01b038082111561165757604051630e58ae9360e11b8152600481018390526024810182905260440161054e565b50505b6109c9838383611900565b600080608083901c1561167a57608092831c92015b604083901c1561168c57604092831c92015b602083901c1561169e57602092831c92015b601083901c156116b057601092831c92015b600883901c156116c257600892831c92015b600483901c156116d457600492831c92015b600283901c156116e657600292831c92015b600183901c156104d35760010192915050565b6000818310611708578161095f565b5090919050565b600061171e6002848418611f10565b61095f90848416611ebb565b60006001600160d01b03821115610c09576040516306dfcc6560e41b815260d060048201526024810183905260440161054e565b60008061178a61176c6106f3565b61178261177888610e59565b868863ffffffff16565b879190611976565b915091505b935093915050565b606060006117a483611984565b604080516020808252818301909252919250600091906020820181803683375050509182525060208101929092525090565b6001600160a01b0383166118015780600260008282546117f69190611ebb565b909155506118739050565b6001600160a01b038316600090815260208190526040902054818110156118545760405163391434e360e21b81526001600160a01b0385166004820152602481018290526044810183905260640161054e565b6001600160a01b03841660009081526020819052604090209082900390555b6001600160a01b03821661188f576002805482900390556118ae565b6001600160a01b03821660009081526020819052604090208054820190555b816001600160a01b0316836001600160a01b03167fddf252ad1be2c89b69c2b068fc378daa952ba7f163c4a11628f55a4df523b3ef836040516118f391815260200190565b60405180910390a3505050565b6001600160a01b0383166119225761191f600b6109a461121e8461172a565b50505b6001600160a01b03821661194457611941600b6109b061121e8461172a565b50505b6001600160a01b038381166000908152600960205260408082205485841683529120546109c9929182169116836111be565b60008061178a8585856119ac565b600060ff8216601f8111156104d357604051632cd44ac360e21b815260040160405180910390fd5b825460009081908015611acb5760006119ca87610c91600185611ea8565b60408051808201909152905465ffffffffffff808216808452600160301b9092046001600160d01b031660208401529192509087161015611a1e57604051632520601d60e01b815260040160405180910390fd5b805165ffffffffffff808816911603611a6a5784611a4188610c91600186611ea8565b80546001600160d01b0392909216600160301b0265ffffffffffff909216919091179055611abb565b6040805180820190915265ffffffffffff80881682526001600160d01b0380881660208085019182528b54600181018d5560008d81529190912094519151909216600160301b029216919091179101555b60200151925083915061178f9050565b50506040805180820190915265ffffffffffff80851682526001600160d01b0380851660208085019182528854600181018a5560008a815291822095519251909316600160301b02919093161792019190915590508161178f565b6000815180845260005b81811015611b4c57602081850181015186830182015201611b30565b506000602082860101526020601f19601f83011685010191505092915050565b60208152600061095f6020830184611b26565b80356001600160a01b0381168114611b9657600080fd5b919050565b60008060408385031215611bae57600080fd5b611bb783611b7f565b946020939093013593505050565b600080600060608486031215611bda57600080fd5b611be384611b7f565b9250611bf160208501611b7f565b9150604084013590509250925092565b600060208284031215611c1357600080fd5b61095f82611b7f565b60ff60f81b881681526000602060e081840152611c3c60e084018a611b26565b8381036040850152611c4e818a611b26565b606085018990526001600160a01b038816608086015260a0850187905284810360c0860152855180825283870192509083019060005b81811015611ca057835183529284019291840191600101611c84565b50909c9b505050505050505050505050565b600060208284031215611cc457600080fd5b5035919050565b803560ff81168114611b9657600080fd5b60008060008060008060c08789031215611cf557600080fd5b611cfe87611b7f565b95506020870135945060408701359350611d1a60608801611ccb565b92506080870135915060a087013590509295509295509295565b600080600080600080600060e0888a031215611d4f57600080fd5b611d5888611b7f565b9650611d6660208901611b7f565b95506040880135945060608801359350611d8260808901611ccb565b925060a0880135915060c0880135905092959891949750929550565b60008060408385031215611db157600080fd5b611dba83611b7f565b9150611dc860208401611b7f565b90509250929050565b60008060408385031215611de457600080fd5b611ded83611b7f565b9150602083013563ffffffff81168114611e0657600080fd5b809150509250929050565b600181811c90821680611e2557607f821691505b602082108103611e4557634e487b7160e01b600052602260045260246000fd5b50919050565b634e487b7160e01b600052601160045260246000fd5b6001600160d01b03818116838216019080821115611e8157611e81611e4b565b5092915050565b6001600160d01b03828116828216039080821115611e8157611e81611e4b565b818103818111156104d3576104d3611e4b565b808201808211156104d3576104d3611e4b565b634e487b7160e01b600052601260045260246000fd5b634e487b7160e01b600052602160045260246000fd5b634e487b7160e01b600052603260045260246000fd5b600082611f2d57634e487b7160e01b600052601260045260246000fd5b50049056fea2646970667358221220867c58093a0569cfd57f576218b30379a362472e17f718c284f47858a0d5e37e64736f6c63430008140033dec2bacdd2f05b59de34da9b523dff8be42e5e38e818c82fdb0bae774387a724",
  "devdoc": {
    "errors": {
      "CheckpointUnorderedInsertion()": [
        {
          "details": "A value was attempted to be inserted on a past checkpoint."
        }
      ],
      "ECDSAInvalidSignature()": [
        {
          "details": "The signature derives the `address(0)`."
        }
      ],
      "ECDSAInvalidSignatureLength(uint256)": [
        {
          "details": "The signature has an invalid length."
        }
      ],
      "ECDSAInvalidSignatureS(bytes32)": [
        {
          "details": "The signature has an S value that is in the upper half order."
        }
      ],
      "ERC20ExceededSafeSupply(uint256,uint256)": [
        {
          "details": "Total supply cap has been exceeded, introducing a risk of votes overflowing."
        }
      ],
      "ERC20InsufficientAllowance(address,uint256,uint256)": [
        {
          "details": "Indicates a failure with the `spender`s `allowance`. Used in transfers.",
          "params": {
            "allowance": "Amount of tokens a `spender` is allowed to operate with.",
            "needed": "Minimum amount required to perform a transfer.",
            "spender": "Address that may be allowed to operate on tokens without being their owner."
          }
        }
      ],
      "ERC20InsufficientBalance(address,uint256,uint256)": [
        {
          "details": "Indicates an error related to the current `balance` of a `sender`. Used in transfers.",
          "params": {
            "balance": "Current balance for the interacting account.",
            "needed": "Minimum amount required to perform a transfer.",
            "sender": "Address whose tokens are being transferred."
          }
        }
      ],
      "ERC20InvalidApprover(address)": [
        {
          "details": "Indicates a failure with the `approver` of a token to be approved. Used in approvals.",
          "params": {
            "approver": "Address initiating an approval operation."
          }
        }
      ],
      "ERC20InvalidReceiver(address)": [
        {
          "details": "Indicates a failure with the token `receiver`. Used in transfers.",
          "params": {
            "receiver": "Address to which tokens are being transferred."
          }
        }
      ],
      "ERC20InvalidSender(address)": [
        {
          "details": "Indicates a failure with the token `sender`. Used in transfers.",
          "params": {
            "sender": "Address whose tokens are being transferred."
          }
        }
      ],
      "ERC20InvalidSpender(address)": [
        {
          "details": "Indicates a failure with the `spender` to be approved. Used in approvals.",
          "params": {
            "spender": "Address that may be allowed to operate on tokens without being their owner."
          }
        }
      ],
      "ERC2612ExpiredSignature(uint256)": [
        {
          "details": "Permit deadline has expired."
        }
      ],
      "ERC2612InvalidSigner(address,address)": [
        {
          "details": "Mismatched signature."
        }
      ],
      "ERC5805FutureLookup(uint256,uint48)": [
        {
          "details": "Lookup to future votes is not available."
        }
      ],
      "ERC6372InconsistentClock()": [
        {
          "details": "The clock was incorrectly modified."
        }
      ],
      "InvalidAccountNonce(address,uint256)": [
        {
          "details": "The nonce used for an `account` is not the expected current nonce."
        }
      ],
      "OwnableInvalidOwner(address)": [
        {
          "details": "The owner is not a valid owner account. (eg. `address(0)`)"
        }
      ],
      "OwnableUnauthorizedAccount(address)": [
        {
          "details": "The caller account is not authorized to perform an operation."
        }
      ],
      "SafeCastOverflowedUintDowncast(uint8,uint256)": [
        {
          "details": "Value doesn't fit in an uint of `bits` size."
        }
      ],
      "VotesExpiredSignature(uint256)": [
        {
          "details": "The signature used has expired."
        }
      ]
    },
    "events": {
      "Approval(address,address,uint256)": {
        "details": "Emitted when the allowance of a `spender` for an `owner` is set by a call to {approve}. `value` is the new allowance."
      },
      "DelegateChanged(address,address,address)": {
        "details": "Emitted when an account changes their delegate."
      },
      "DelegateVotesChanged(address,uint256,uint256)": {
        "details": "Emitted when a token transfer or delegate change results in changes to a delegate's number of voting units."
      },
      "EIP712DomainChanged()": {
        "details": "MAY be emitted to signal that the domain could have changed."
      },
      "Transfer(address,address,uint256)": {
        "details": "Emitted when `value` tokens are moved from one account (`from`) to another (`to`). Note that `value` may be zero."
      }
    },
    "kind": "dev",
    "methods": {
      "CLOCK_MODE()": {
        "details": "Machine-readable description of the clock as specified in EIP-6372."
      },
      "DOMAIN_SEPARATOR()": {
        "details": "Returns the domain separator used in the encoding of the signature for {permit}, as defined by {EIP712}."
      },
      "allowance(address,address)": {
        "details": "See {IERC20-allowance}."
      },
      "approve(address,uint256)": {
        "details": "See {IERC20-approve}. NOTE: If `value` is the maximum `uint256`, the allowance is not updated on `transferFrom`. This is semantically equivalent to an infinite approval. Requirements: - `spender` cannot be the zero address."
      },
      "balanceOf(address)": {
        "details": "See {IERC20-balanceOf}."
      },
      "checkpoints(address,uint32)": {
        "details": "Get the `pos`-th checkpoint for `account`."
      },
      "clock()": {
        "details": "Clock used for flagging checkpoints. Can be overridden to implement timestamp based checkpoints (and voting), in which case {CLOCK_MODE} should be overridden as well to match."
      },
      "decimals()": {
        "details": "Returns the number of decimals used to get its user representation. For example, if `decimals` equals `2`, a balance of `505` tokens should be displayed to a user as `5.05` (`505 / 10 ** 2`). Tokens usually opt for a value of 18, imitating the relationship between Ether and Wei. This is the default value returned by this function, unless it's overridden. NOTE: This information is only used for _display_ purposes: it in no way affects any of the arithmetic of the contract, including {IERC20-balanceOf} and {IERC20-transfer}."
      },
      "delegate(address)": {
        "details": "Delegates votes from the sender to `delegatee`."
      },
      "delegateBySig(address,uint256,uint256,uint8,bytes32,bytes32)": {
        "details": "Delegates votes from signer to `delegatee`."
      },
      "delegates(address)": {
        "details": "Returns the delegate that `account` has chosen."
      },
      "eip712Domain()": {
        "details": "See {IERC-5267}."
      },
      "getPastTotalSupply(uint256)": {
        "details": "Returns the total supply of votes available at a specific moment in the past. If the `clock()` is configured to use block numbers, this will return the value at the end of the corresponding block. NOTE: This value is the sum of all available votes, which is not necessarily the sum of all delegated votes. Votes that have not been delegated are still part of total supply, even though they would not participate in a vote. Requirements: - `timepoint` must be in the past. If operating using block numbers, the block must be already mined."
      },
      "getPastVotes(address,uint256)": {
        "details": "Returns the amount of votes that `account` had at a specific moment in the past. If the `clock()` is configured to use block numbers, this will return the value at the end of the corresponding block. Requirements: - `timepoint` must be in the past. If operating using block numbers, the block must be already mined."
      },
      "getVotes(address)": {
        "details": "Returns the current amount of votes that `account` has."
      },
      "name()": {
        "details": "Returns the name of the token."
      },
      "numCheckpoints(address)": {
        "details": "Get number of checkpoints for `account`."
      },
      "owner()": {
        "details": "Returns the address of the current owner."
      },
      "permit(address,address,uint256,uint256,uint8,bytes32,bytes32)": {
        "details": "Sets `value` as the allowance of `spender` over ``owner``'s tokens, given ``owner``'s signed approval. IMPORTANT: The same issues {IERC20-approve} has related to transaction ordering also apply here. Emits an {Approval} event. Requirements: - `spender` cannot be the zero address. - `deadline` must be a timestamp in the future. - `v`, `r` and `s` must be a valid `secp256k1` signature from `owner` over the EIP712-formatted function arguments. - the signature must use ``owner``'s current nonce (see {nonces}). For more information on the signature format, see the https://eips.ethereum.org/EIPS/eip-2612#specification[relevant EIP section]. CAUTION: See Security Considerations above."
      },
      "renounceOwnership()": {
        "details": "Leaves the contract without owner. It will not be possible to call `onlyOwner` functions. Can only be called by the current owner. NOTE: Renouncing ownership will leave the contract without an owner, thereby disabling any functionality that is only available to the owner."
      },
      "symbol()": {
        "details": "Returns the symbol of the token, usually a shorter version of the name."
      },
      "totalSupply()": {
        "details": "See {IERC20-totalSupply}."
      },
      "transfer(address,uint256)": {
        "details": "See {IERC20-transfer}. Requirements: - `to` cannot be the zero address. - the caller must have a balance of at least `value`."
      },
      "transferFrom(address,address,uint256)": {
        "details": "See {IERC20-transferFrom}. Emits an {Approval} event indicating the updated allowance. This is not required by the EIP. See the note at the beginning of {ERC20}. NOTE: Does not update the allowance if the current allowance is the maximum `uint256`. Requirements: - `from` and `to` cannot be the zero address. - `from` must have a balance of at least `value`. - the caller must have allowance for ``from``'s tokens of at least `value`."
      },
      "transferOwnership(address)": {
        "details": "Transfers ownership of the contract to a new account (`newOwner`). Can only be called by the current owner."
      }
    },
    "version": 1
  },
  "userdoc": {
    "kind": "user",
    "methods": {},
    "version": 1
  },
  "storageLayout": {
    "storage": [
      {
        "astId": 5856,
        "contract": "contracts/DaoToken.sol:DaoToken",
        "label": "_balances",
        "offset": 0,
        "slot": "0",
        "type": "t_mapping(t_address,t_uint256)"
      },
      {
        "astId": 5862,
        "contract": "contracts/DaoToken.sol:DaoToken",
        "label": "_allowances",
        "offset": 0,
        "slot": "1",
        "type": "t_mapping(t_address,t_mapping(t_address,t_uint256))"
      },
      {
        "astId": 5864,
        "contract": "contracts/DaoToken.sol:DaoToken",
        "label": "_totalSupply",
        "offset": 0,
        "slot": "2",
        "type": "t_uint256"
      },
      {
        "astId": 5866,
        "contract": "contracts/DaoToken.sol:DaoToken",
        "label": "_name",
        "offset": 0,
        "slot": "3",
        "type": "t_string_storage"
      },
      {
        "astId": 5868,
        "contract": "contracts/DaoToken.sol:DaoToken",
        "label": "_symbol",
        "offset": 0,
        "slot": "4",
        "type": "t_string_storage"
      },
      {
        "astId": 387,
        "contract": "contracts/DaoToken.sol:DaoToken",
        "label": "_owner",
        "offset": 0,
        "slot": "5",
        "type": "t_address"
      },
      {
        "astId": 8137,
        "contract": "contracts/DaoToken.sol:DaoToken",
        "label": "_nameFallback",
        "offset": 0,
        "slot": "6",
        "type": "t_string_storage"
      },
      {
        "astId": 8139,
        "contract": "contracts/DaoToken.sol:DaoToken",
        "label": "_versionFallback",
        "offset": 0,
        "slot": "7",
        "type": "t_string_storage"
      },
      {
        "astId": 7116,
        "contract": "contracts/DaoToken.sol:DaoToken",
        "label": "_nonces",
        "offset": 0,
        "slot": "8",
        "type": "t_mapping(t_address,t_uint256)"
      },
      {
        "astId": 4997,
        "contract": "contracts/DaoToken.sol:DaoToken",
        "label": "_delegatee",
        "offset": 0,
        "slot": "9",
        "type": "t_mapping(t_address,t_address)"
      },
      {
        "astId": 5002,
        "contract": "contracts/DaoToken.sol:DaoToken",
        "label": "_delegateCheckpoints",
        "offset": 0,
        "slot": "10",
        "type": "t_mapping(t_address,t_struct(Trace208)11986_storage)"
      },
      {
        "astId": 5005,
        "contract": "contracts/DaoToken.sol:DaoToken",
        "label": "_totalCheckpoints",
        "offset": 0,
        "slot": "11",
        "type": "t_struct(Trace208)11986_storage"
      },
      {
        "astId": 13892,
        "contract": "contracts/DaoToken.sol:DaoToken",
        "label": "max_supply",
        "offset": 0,
        "slot": "12",
        "type": "t_uint256"
      }
    ],
    "types": {
      "t_address": {
        "encoding": "inplace",
        "label": "address",
        "numberOfBytes": "20"
      },
      "t_array(t_struct(Checkpoint208)11991_storage)dyn_storage": {
        "base": "t_struct(Checkpoint208)11991_storage",
        "encoding": "dynamic_array",
        "label": "struct Checkpoints.Checkpoint208[]",
        "numberOfBytes": "32"
      },
      "t_mapping(t_address,t_address)": {
        "encoding": "mapping",
        "key": "t_address",
        "label": "mapping(address => address)",
        "numberOfBytes": "32",
        "value": "t_address"
      },
      "t_mapping(t_address,t_mapping(t_address,t_uint256))": {
        "encoding": "mapping",
        "key": "t_address",
        "label": "mapping(address => mapping(address => uint256))",
        "numberOfBytes": "32",
        "value": "t_mapping(t_address,t_uint256)"
      },
      "t_mapping(t_address,t_struct(Trace208)11986_storage)": {
        "encoding": "mapping",
        "key": "t_address",
        "label": "mapping(address => struct Checkpoints.Trace208)",
        "numberOfBytes": "32",
        "value": "t_struct(Trace208)11986_storage"
      },
      "t_mapping(t_address,t_uint256)": {
        "encoding": "mapping",
        "key": "t_address",
        "label": "mapping(address => uint256)",
        "numberOfBytes": "32",
        "value": "t_uint256"
      },
      "t_string_storage": {
        "encoding": "bytes",
        "label": "string",
        "numberOfBytes": "32"
      },
      "t_struct(Checkpoint208)11991_storage": {
        "encoding": "inplace",
        "label": "struct Checkpoints.Checkpoint208",
        "members": [
          {
            "astId": 11988,
            "contract": "contracts/DaoToken.sol:DaoToken",
            "label": "_key",
            "offset": 0,
            "slot": "0",
            "type": "t_uint48"
          },
          {
            "astId": 11990,
            "contract": "contracts/DaoToken.sol:DaoToken",
            "label": "_value",
            "offset": 6,
            "slot": "0",
            "type": "t_uint208"
          }
        ],
        "numberOfBytes": "32"
      },
      "t_struct(Trace208)11986_storage": {
        "encoding": "inplace",
        "label": "struct Checkpoints.Trace208",
        "members": [
          {
            "astId": 11985,
            "contract": "contracts/DaoToken.sol:DaoToken",
            "label": "_checkpoints",
            "offset": 0,
            "slot": "0",
            "type": "t_array(t_struct(Checkpoint208)11991_storage)dyn_storage"
          }
        ],
        "numberOfBytes": "32"
      },
      "t_uint208": {
        "encoding": "inplace",
        "label": "uint208",
        "numberOfBytes": "26"
      },
      "t_uint256": {
        "encoding": "inplace",
        "label": "uint256",
        "numberOfBytes": "32"
      },
      "t_uint48": {
        "encoding": "inplace",
        "label": "uint48",
        "numberOfBytes": "6"
      }
    }
  }
}