{
  "address": "0xa513E6E4b8f2a923D98304ec87F64353C4D5C853",
  "abi": [
    {
      "inputs": [
        {
          "internalType": "address",
          "name": "initialOwner",
          "type": "address"
        }
      ],
      "stateMutability": "nonpayable",
      "type": "constructor"
    },
    {
      "inputs": [
        {
          "internalType": "address",
          "name": "owner",
          "type": "address"
        }
      ],
      "name": "OwnableInvalidOwner",
      "type": "error"
    },
    {
      "inputs": [
        {
          "internalType": "address",
          "name": "account",
          "type": "address"
        }
      ],
      "name": "OwnableUnauthorizedAccount",
      "type": "error"
    },
    {
      "anonymous": false,
      "inputs": [
        {
          "indexed": false,
          "internalType": "string",
          "name": "location",
          "type": "string"
        }
      ],
      "name": "LocationChanged",
      "type": "event"
    },
    {
      "anonymous": false,
      "inputs": [
        {
          "indexed": true,
          "internalType": "address",
          "name": "previousOwner",
          "type": "address"
        },
        {
          "indexed": true,
          "internalType": "address",
          "name": "newOwner",
          "type": "address"
        }
      ],
      "name": "OwnershipTransferred",
      "type": "event"
    },
    {
      "inputs": [],
      "name": "owner",
      "outputs": [
        {
          "internalType": "address",
          "name": "",
          "type": "address"
        }
      ],
      "stateMutability": "view",
      "type": "function"
    },
    {
      "inputs": [],
      "name": "renounceOwnership",
      "outputs": [],
      "stateMutability": "nonpayable",
      "type": "function"
    },
    {
      "inputs": [],
      "name": "retrieve",
      "outputs": [
        {
          "internalType": "string",
          "name": "",
          "type": "string"
        }
      ],
      "stateMutability": "view",
      "type": "function"
    },
    {
      "inputs": [
        {
          "internalType": "string",
          "name": "newLocation",
          "type": "string"
        }
      ],
      "name": "store",
      "outputs": [],
      "stateMutability": "nonpayable",
      "type": "function"
    },
    {
      "inputs": [
        {
          "internalType": "address",
          "name": "newOwner",
          "type": "address"
        }
      ],
      "name": "transferOwnership",
      "outputs": [],
      "stateMutability": "nonpayable",
      "type": "function"
    }
  ],
  "transactionHash": "0x8dc0f4695251b77d4fcc4782f88ae2442630b2e2adb12df25f7249a30fc09e26",
  "args": [
    "0xf39Fd6e51aad88F6F4ce6aB8827279cffFb92266"
  ],
  "numDeployments": 1,
  "solcInputHash": "0c6ec4f2886e2ea5bf61ddb164486a24",
  "bytecode": "0x608060405234801561001057600080fd5b5060405161063b38038061063b83398101604081905261002f916100be565b806001600160a01b03811661005e57604051631e4fbdf760e01b81526000600482015260240160405180910390fd5b6100678161006e565b50506100ee565b600080546001600160a01b038381166001600160a01b0319831681178455604051919092169283917f8be0079c531659141344cd1fd0a4f28419497f9722a3daafe3b4186f6b6457e09190a35050565b6000602082840312156100d057600080fd5b81516001600160a01b03811681146100e757600080fd5b9392505050565b61053e806100fd6000396000f3fe608060405234801561001057600080fd5b50600436106100575760003560e01c8063131a06801461005c5780632e64cec114610071578063715018a61461008f5780638da5cb5b14610097578063f2fde38b146100b2575b600080fd5b61006f61006a366004610290565b6100c5565b005b610079610114565b6040516100869190610341565b60405180910390f35b61006f6101a6565b6000546040516001600160a01b039091168152602001610086565b61006f6100c036600461038f565b6101ba565b6100cd6101fd565b60016100d98282610448565b507fb03b131fce072f40b259b383dd857340496c2545f752573cf6c0c393f369c581816040516101099190610341565b60405180910390a150565b606060018054610123906103bf565b80601f016020809104026020016040519081016040528092919081815260200182805461014f906103bf565b801561019c5780601f106101715761010080835404028352916020019161019c565b820191906000526020600020905b81548152906001019060200180831161017f57829003601f168201915b5050505050905090565b6101ae6101fd565b6101b8600061022a565b565b6101c26101fd565b6001600160a01b0381166101f157604051631e4fbdf760e01b8152600060048201526024015b60405180910390fd5b6101fa8161022a565b50565b6000546001600160a01b031633146101b85760405163118cdaa760e01b81523360048201526024016101e8565b600080546001600160a01b038381166001600160a01b0319831681178455604051919092169283917f8be0079c531659141344cd1fd0a4f28419497f9722a3daafe3b4186f6b6457e09190a35050565b634e487b7160e01b600052604160045260246000fd5b6000602082840312156102a257600080fd5b813567ffffffffffffffff808211156102ba57600080fd5b818401915084601f8301126102ce57600080fd5b8135818111156102e0576102e061027a565b604051601f8201601f19908116603f011681019083821181831017156103085761030861027a565b8160405282815287602084870101111561032157600080fd5b826020860160208301376000928101602001929092525095945050505050565b600060208083528351808285015260005b8181101561036e57858101830151858201604001528201610352565b506000604082860101526040601f19601f8301168501019250505092915050565b6000602082840312156103a157600080fd5b81356001600160a01b03811681146103b857600080fd5b9392505050565b600181811c908216806103d357607f821691505b6020821081036103f357634e487b7160e01b600052602260045260246000fd5b50919050565b601f82111561044357600081815260208120601f850160051c810160208610156104205750805b601f850160051c820191505b8181101561043f5782815560010161042c565b5050505b505050565b815167ffffffffffffffff8111156104625761046261027a565b6104768161047084546103bf565b846103f9565b602080601f8311600181146104ab57600084156104935750858301515b600019600386901b1c1916600185901b17855561043f565b600085815260208120601f198616915b828110156104da578886015182559484019460019091019084016104bb565b50858210156104f85787850151600019600388901b60f8161c191681555b5050505050600190811b0190555056fea2646970667358221220f4496fbe9ab3c3fe4d70ba404d2908400f0dbeef5953d818ef858e4908dec75864736f6c63430008140033",
  "devdoc": {
    "errors": {
      "OwnableInvalidOwner(address)": [
        {
          "details": "The owner is not a valid owner account. (eg. `address(0)`)"
        }
      ],
      "OwnableUnauthorizedAccount(address)": [
        {
          "details": "The caller account is not authorized to perform an operation."
        }
      ]
    },
    "kind": "dev",
    "methods": {
      "owner()": {
        "details": "Returns the address of the current owner."
      },
      "renounceOwnership()": {
        "details": "Leaves the contract without owner. It will not be possible to call `onlyOwner` functions. Can only be called by the current owner. NOTE: Renouncing ownership will leave the contract without an owner, thereby disabling any functionality that is only available to the owner."
      },
      "transferOwnership(address)": {
        "details": "Transfers ownership of the contract to a new account (`newOwner`). Can only be called by the current owner."
      }
    },
    "version": 1
  },
  "userdoc": {
    "kind": "user",
    "methods": {},
    "version": 1
  },
  "storageLayout": {
    "storage": [
      {
        "astId": 8,
        "contract": "contracts/TravelLoc.sol:TravelLoc",
        "label": "_owner",
        "offset": 0,
        "slot": "0",
        "type": "t_address"
      },
      {
        "astId": 184,
        "contract": "contracts/TravelLoc.sol:TravelLoc",
        "label": "location",
        "offset": 0,
        "slot": "1",
        "type": "t_string_storage"
      }
    ],
    "types": {
      "t_address": {
        "encoding": "inplace",
        "label": "address",
        "numberOfBytes": "20"
      },
      "t_string_storage": {
        "encoding": "bytes",
        "label": "string",
        "numberOfBytes": "32"
      }
    }
  }
}